{
  "contractName": "MessageBoard",
  "abi": [
    {
      "inputs": [
        {
          "internalType": "string",
          "name": "_message",
          "type": "string"
        }
      ],
      "name": "addMessage",
      "outputs": [],
      "stateMutability": "nonpayable",
      "type": "function"
    },
    {
      "inputs": [],
      "name": "getMessages",
      "outputs": [
        {
          "internalType": "string[]",
          "name": "",
          "type": "string[]"
        }
      ],
      "stateMutability": "view",
      "type": "function",
      "constant": true
    }
  ],
  "bytecode": "0x608060405234801561001057600080fd5b50610503806100206000396000f3fe608060405234801561001057600080fd5b50600436106100365760003560e01c80635ff6cbf31461003b5780636a226a4914610059575b600080fd5b610043610075565b6040516100509190610398565b60405180910390f35b610073600480360381019061006e9190610289565b61014e565b005b60606000805480602002602001604051908101604052809291908181526020016000905b828210156101455783829060005260206000200180546100b890610442565b80601f01602080910402602001604051908101604052809291908181526020018280546100e490610442565b80156101315780601f1061010657610100808354040283529160200191610131565b820191906000526020600020905b81548152906001019060200180831161011457829003601f168201915b505050505081526020019060010190610099565b50505050905090565b600082829091806001815401808255809150506001900390600052602060002001600090919290919290919290919250919061018b929190610190565b505050565b82805461019c90610442565b90600052602060002090601f0160209004810192826101be5760008555610205565b82601f106101d757803560ff1916838001178555610205565b82800160010185558215610205579182015b828111156102045782358255916020019190600101906101e9565b5b5090506102129190610216565b5090565b5b8082111561022f576000816000905550600101610217565b5090565b60008083601f840112610249576102486104a8565b5b8235905067ffffffffffffffff811115610266576102656104a3565b5b602083019150836001820283011115610282576102816104ad565b5b9250929050565b600080602083850312156102a05761029f6104b7565b5b600083013567ffffffffffffffff8111156102be576102bd6104b2565b5b6102ca85828601610233565b92509250509250929050565b60006102e2838361035f565b905092915050565b60006102f5826103ca565b6102ff81856103ed565b935083602082028501610311856103ba565b8060005b8581101561034d578484038952815161032e85826102d6565b9450610339836103e0565b925060208a01995050600181019050610315565b50829750879550505050505092915050565b600061036a826103d5565b61037481856103fe565b935061038481856020860161040f565b61038d816104bc565b840191505092915050565b600060208201905081810360008301526103b281846102ea565b905092915050565b6000819050602082019050919050565b600081519050919050565b600081519050919050565b6000602082019050919050565b600082825260208201905092915050565b600082825260208201905092915050565b60005b8381101561042d578082015181840152602081019050610412565b8381111561043c576000848401525b50505050565b6000600282049050600182168061045a57607f821691505b6020821081141561046e5761046d610474565b5b50919050565b7f4e487b7100000000000000000000000000000000000000000000000000000000600052602260045260246000fd5b600080fd5b600080fd5b600080fd5b600080fd5b600080fd5b6000601f19601f830116905091905056fea2646970667358221220c025de07282cc8e526eff9bf5342dc5fc9ddaa964462c2ba4a2f7538d12fad9a64736f6c63430008060033",
  "immutableReferences": {},
  "source": "pragma solidity 0.8.6;\r\n\r\ncontract MessageBoard {\r\n\r\n    string[] internal messages;\r\n\r\n    function addMessage(string calldata _message) public {\r\n        messages.push(_message);\r\n    }\r\n\r\n    function getMessages() public view returns(string[] memory) {\r\n        return messages;\r\n    }\r\n}",
  "sourcePath": "C:/Users/Anonymous/bc/blockchain-message-board/contracts/MessageBoard.sol",
  "compiler": {
    "name": "solc",
    "version": "0.8.6+commit.11564f7e.Emscripten.clang"
  },
  "schemaVersion": "3.4.1",
  "updatedAt": "2021-07-08T15:40:15.406Z",
  "networkType": "ethereum",
  "devdoc": {
    "kind": "dev",
    "methods": {},
    "version": 1
  },
  "userdoc": {
    "kind": "user",
    "methods": {},
    "version": 1
  }
}